{
  "transactions": [
    {
      "hash": "0x3ea0be2ced13c6e409c5fbb3409dfbeb73a23263429e4b9784aa31634a2dc319",
      "transactionType": "CALL",
      "contractName": null,
      "contractAddress": "0xe1852c5a36cd3e4867ca56bdf5f43a465b0f7ce9",
      "function": "setBackendSigner(address)",
      "arguments": [
        "0x1342334E589479F87b723b03Ed5E697760c1d0d3"
      ],
      "transaction": {
        "from": "0x15e60b363b5ab5e47624bc7d62b6d86afe5af543",
        "to": "0xe1852c5a36cd3e4867ca56bdf5f43a465b0f7ce9",
        "gas": "0x136f6",
        "value": "0x0",
        "input": "0x36f956700000000000000000000000001342334e589479f87b723b03ed5e697760c1d0d3",
        "nonce": "0xbc",
        "chainId": "0x279f"
      },
      "additionalContracts": [],
      "isFixedGasLimit": false
    },
    {
      "hash": "0x36dbe4299a468776434c58c69df023dcb07dc3f040ed5758d25d647697498f3b",
      "transactionType": "CALL",
      "contractName": null,
      "contractAddress": "0x657abb4507e8f53f6be1da61bf345cddb584de20",
      "function": "setBackendSigner(address)",
      "arguments": [
        "0x1342334E589479F87b723b03Ed5E697760c1d0d3"
      ],
      "transaction": {
        "from": "0x15e60b363b5ab5e47624bc7d62b6d86afe5af543",
        "to": "0x657abb4507e8f53f6be1da61bf345cddb584de20",
        "gas": "0x136cf",
        "value": "0x0",
        "input": "0x36f956700000000000000000000000001342334e589479f87b723b03ed5e697760c1d0d3",
        "nonce": "0xbd",
        "chainId": "0x279f"
      },
      "additionalContracts": [],
      "isFixedGasLimit": false
    }
  ],
  "receipts": [
    {
      "status": "0x1",
      "cumulativeGasUsed": "0x2a7c32",
      "logs": [
        {
          "address": "0xe1852c5a36cd3e4867ca56bdf5f43a465b0f7ce9",
          "topics": [
            "0xbf1b7f0ea3d9f70f4a9732008adf3ed3aacaa8e1d290ace363b8a009a0d9c09e",
            "0x0000000000000000000000001342334e589479f87b723b03ed5e697760c1d0d3"
          ],
          "data": "0x",
          "blockHash": "0x249e2993cd4bee08d9b4f83fe8aa0b11672304ab68a9f548be1853e306d83b18",
          "blockNumber": "0x1a62efb",
          "blockTimestamp": "0x69ec59ee",
          "transactionHash": "0x3ea0be2ced13c6e409c5fbb3409dfbeb73a23263429e4b9784aa31634a2dc319",
          "transactionIndex": "0x4",
          "logIndex": "0x16",
          "removed": false
        }
      ],
      "logsBloom": "0x00002000000000000000000000000000000000000000000000000004000000000000000000001000000000000000000000000000000000000000000000000000000000000000000000000020000000000000000000000000000000000000000000000000000000000000000000000000000008000000000000000000000000000000000000000000000000000000000000000000000000000400000000000000000000000000000000000000000020000000004000000000000000000000000000000000000000000000000000000000000000000000000000020000000000000000000000000000000000000000000000000000000000000000000000000000",
      "type": "0x2",
      "transactionHash": "0x3ea0be2ced13c6e409c5fbb3409dfbeb73a23263429e4b9784aa31634a2dc319",
      "transactionIndex": "0x4",
      "blockHash": "0x249e2993cd4bee08d9b4f83fe8aa0b11672304ab68a9f548be1853e306d83b18",
      "blockNumber": "0x1a62efb",
      "gasUsed": "0x136f6",
      "effectiveGasPrice": "0x1a3d718700",
      "from": "0x15e60b363b5ab5e47624bc7d62b6d86afe5af543",
      "to": "0xe1852c5a36cd3e4867ca56bdf5f43a465b0f7ce9",
      "contractAddress": null
    },
    {
      "status": "0x1",
      "cumulativeGasUsed": "0x73945",
      "logs": [
        {
          "address": "0x657abb4507e8f53f6be1da61bf345cddb584de20",
          "topics": [
            "0xbf1b7f0ea3d9f70f4a9732008adf3ed3aacaa8e1d290ace363b8a009a0d9c09e",
            "0x0000000000000000000000001342334e589479f87b723b03ed5e697760c1d0d3"
          ],
          "data": "0x",
          "blockHash": "0x171cbddfa5681ff0b2ebf2f97a7b6720ecd28a937ba7e1a9e61465af8b2121f8",
          "blockNumber": "0x1a62f02",
          "blockTimestamp": "0x69ec59f0",
          "transactionHash": "0x36dbe4299a468776434c58c69df023dcb07dc3f040ed5758d25d647697498f3b",
          "transactionIndex": "0x3",
          "logIndex": "0x9",
          "removed": false
        }
      ],
      "logsBloom": "0x00002000000000000000000000000000000000000000000000000004000000000000000000000000000000000000000000000000000000000000000000000000000000000000000000000000000000000000000000000040000000000000000000000000000000000000000000000000000008000000000000000000000000000000000000000000000000000000000000000000000000000400000000000000000000000000000000000000000020000000000000000000000000000000000000000000000000000000000000000000000000000000000000020000000000000000000000000000000000000000000008000000000000000000000001000000",
      "type": "0x2",
      "transactionHash": "0x36dbe4299a468776434c58c69df023dcb07dc3f040ed5758d25d647697498f3b",
      "transactionIndex": "0x3",
      "blockHash": "0x171cbddfa5681ff0b2ebf2f97a7b6720ecd28a937ba7e1a9e61465af8b2121f8",
      "blockNumber": "0x1a62f02",
      "gasUsed": "0x136cf",
      "effectiveGasPrice": "0x1a3d718700",
      "from": "0x15e60b363b5ab5e47624bc7d62b6d86afe5af543",
      "to": "0x657abb4507e8f53f6be1da61bf345cddb584de20",
      "contractAddress": null
    }
  ],
  "libraries": [],
  "pending": [],
  "returns": {},
  "timestamp": 1777097202412,
  "chain": 10143,
  "commit": "3069286"
}