{
  "transactions": [
    {
      "hash": "0xc65178374784262b4533cbc8147557cd485b60401f7b1225c72e3536695c0e04",
      "transactionType": "CALL",
      "contractName": null,
      "contractAddress": "0xd1873ddd24cf2c41192e11a87cc7d3026557dab8",
      "function": "setBackendSigner(address)",
      "arguments": [
        "0x1342334E589479F87b723b03Ed5E697760c1d0d3"
      ],
      "transaction": {
        "from": "0xc4dc218797d2b049eba540db7998dbcc67d10540",
        "to": "0xd1873ddd24cf2c41192e11a87cc7d3026557dab8",
        "gas": "0x136f6",
        "value": "0x0",
        "input": "0x36f956700000000000000000000000001342334e589479f87b723b03ed5e697760c1d0d3",
        "nonce": "0x18",
        "chainId": "0x279f"
      },
      "additionalContracts": [],
      "isFixedGasLimit": false
    },
    {
      "hash": "0xc337de4cc8c891ce724802725ce6719f27f366857e8c771159fef02e95bfd82d",
      "transactionType": "CALL",
      "contractName": null,
      "contractAddress": "0x31029a59e40eb062f3c5d33adff8561f0549199e",
      "function": "setBackendSigner(address)",
      "arguments": [
        "0x1342334E589479F87b723b03Ed5E697760c1d0d3"
      ],
      "transaction": {
        "from": "0xc4dc218797d2b049eba540db7998dbcc67d10540",
        "to": "0x31029a59e40eb062f3c5d33adff8561f0549199e",
        "gas": "0x136cf",
        "value": "0x0",
        "input": "0x36f956700000000000000000000000001342334e589479f87b723b03ed5e697760c1d0d3",
        "nonce": "0x19",
        "chainId": "0x279f"
      },
      "additionalContracts": [],
      "isFixedGasLimit": false
    }
  ],
  "receipts": [
    {
      "status": "0x1",
      "cumulativeGasUsed": "0x4a5eb",
      "logs": [
        {
          "address": "0xd1873ddd24cf2c41192e11a87cc7d3026557dab8",
          "topics": [
            "0xbf1b7f0ea3d9f70f4a9732008adf3ed3aacaa8e1d290ace363b8a009a0d9c09e",
            "0x0000000000000000000000001342334e589479f87b723b03ed5e697760c1d0d3"
          ],
          "data": "0x",
          "blockHash": "0x0b0dca8bcd695e462c6882e67d9d4dd3bafda472c521d17212fa8065c5c7e39d",
          "blockNumber": "0x1a68794",
          "blockTimestamp": "0x69ec7dd4",
          "transactionHash": "0xc65178374784262b4533cbc8147557cd485b60401f7b1225c72e3536695c0e04",
          "transactionIndex": "0x2",
          "logIndex": "0x5",
          "removed": false
        }
      ],
      "logsBloom": "0x00002000000000000000000000000000000000000000000000000004000000000000000000000000000000000000000000000000000000000000000000000000000000000000000000000000000000000000000000000000000000000000000000000000000000000000000000000000000008000000000000000000000000000000000000100000000000000000000000000000000000000400000000000000000000000000000000000000000020000000000000002000000000000000000000000000000000000000000000000000000000000000000000020000000000000000000000000000000000000000000000000000000000000000000000080000",
      "type": "0x2",
      "transactionHash": "0xc65178374784262b4533cbc8147557cd485b60401f7b1225c72e3536695c0e04",
      "transactionIndex": "0x2",
      "blockHash": "0x0b0dca8bcd695e462c6882e67d9d4dd3bafda472c521d17212fa8065c5c7e39d",
      "blockNumber": "0x1a68794",
      "gasUsed": "0x136f6",
      "effectiveGasPrice": "0x1a3d718700",
      "from": "0xc4dc218797d2b049eba540db7998dbcc67d10540",
      "to": "0xd1873ddd24cf2c41192e11a87cc7d3026557dab8",
      "contractAddress": null
    },
    {
      "status": "0x1",
      "cumulativeGasUsed": "0x73945",
      "logs": [
        {
          "address": "0x31029a59e40eb062f3c5d33adff8561f0549199e",
          "topics": [
            "0xbf1b7f0ea3d9f70f4a9732008adf3ed3aacaa8e1d290ace363b8a009a0d9c09e",
            "0x0000000000000000000000001342334e589479f87b723b03ed5e697760c1d0d3"
          ],
          "data": "0x",
          "blockHash": "0xe4c21baf7f5080b17a65e0930a8e15af8fb3fc19e9937bede2c15037253344e8",
          "blockNumber": "0x1a6879a",
          "blockTimestamp": "0x69ec7dd7",
          "transactionHash": "0xc337de4cc8c891ce724802725ce6719f27f366857e8c771159fef02e95bfd82d",
          "transactionIndex": "0x3",
          "logIndex": "0x9",
          "removed": false
        }
      ],
      "logsBloom": "0x00002000000000000000000000000000000000000000000000000004000000000000000000000000000000000000000000000000000000000000000000000000000000000000000000000000000000000000000000000000000000000000000000000000000000000000000000000000000008000000000000000000000000000000004000000000000000000000000000000000000000000400000000000000000000080000000000000000000020000000000000000000000000000000000000000000000000000000000000000000000000000000000000020000000000000002000000000000000000000000000000000000000000000000000000000000",
      "type": "0x2",
      "transactionHash": "0xc337de4cc8c891ce724802725ce6719f27f366857e8c771159fef02e95bfd82d",
      "transactionIndex": "0x3",
      "blockHash": "0xe4c21baf7f5080b17a65e0930a8e15af8fb3fc19e9937bede2c15037253344e8",
      "blockNumber": "0x1a6879a",
      "gasUsed": "0x136cf",
      "effectiveGasPrice": "0x1a3d718700",
      "from": "0xc4dc218797d2b049eba540db7998dbcc67d10540",
      "to": "0x31029a59e40eb062f3c5d33adff8561f0549199e",
      "contractAddress": null
    }
  ],
  "libraries": [],
  "pending": [],
  "returns": {},
  "timestamp": 1777106391658,
  "chain": 10143,
  "commit": "3d0d33d9"
}